{
    "_format": "hh-sol-artifact-1",
    "contractName": "BookmakerV01",
    "sourceName": "contracts/BookmakerV01.sol",
    "abi": [
        {
            "inputs": [
                {
                    "internalType": "address",
                    "name": "_betToken",
                    "type": "address"
                },
                {
                    "internalType": "uint256",
                    "name": "_gameStarts",
                    "type": "uint256"
                },
                {
                    "internalType": "string",
                    "name": "_eventName",
                    "type": "string"
                }
            ],
            "stateMutability": "nonpayable",
            "type": "constructor"
        },
        {
            "anonymous": false,
            "inputs": [
                {
                    "indexed": true,
                    "internalType": "address",
                    "name": "better",
                    "type": "address"
                },
                {
                    "indexed": false,
                    "internalType": "uint256",
                    "name": "amount",
                    "type": "uint256"
                },
                {
                    "indexed": false,
                    "internalType": "uint256",
                    "name": "result",
                    "type": "uint256"
                }
            ],
            "name": "LogBet",
            "type": "event"
        },
        {
            "anonymous": false,
            "inputs": [
                {
                    "indexed": true,
                    "internalType": "address",
                    "name": "claimer",
                    "type": "address"
                },
                {
                    "indexed": false,
                    "internalType": "uint256",
                    "name": "amount",
                    "type": "uint256"
                }
            ],
            "name": "LogClaim",
            "type": "event"
        },
        {
            "inputs": [],
            "name": "admin",
            "outputs": [
                {
                    "internalType": "address",
                    "name": "",
                    "type": "address"
                }
            ],
            "stateMutability": "view",
            "type": "function"
        },
        {
            "inputs": [
                {
                    "internalType": "uint256[]",
                    "name": "_amount",
                    "type": "uint256[]"
                }
            ],
            "name": "batchBet",
            "outputs": [],
            "stateMutability": "nonpayable",
            "type": "function"
        },
        {
            "inputs": [
                {
                    "internalType": "uint256",
                    "name": "_amount",
                    "type": "uint256"
                },
                {
                    "internalType": "uint8",
                    "name": "_result",
                    "type": "uint8"
                }
            ],
            "name": "bet",
            "outputs": [],
            "stateMutability": "nonpayable",
            "type": "function"
        },
        {
            "inputs": [],
            "name": "betToken",
            "outputs": [
                {
                    "internalType": "address",
                    "name": "",
                    "type": "address"
                }
            ],
            "stateMutability": "view",
            "type": "function"
        },
        {
            "inputs": [
                {
                    "internalType": "uint256",
                    "name": "_amount",
                    "type": "uint256"
                },
                {
                    "internalType": "uint256",
                    "name": "_deadline",
                    "type": "uint256"
                },
                {
                    "internalType": "uint8",
                    "name": "_result",
                    "type": "uint8"
                },
                {
                    "internalType": "uint8",
                    "name": "v",
                    "type": "uint8"
                },
                {
                    "internalType": "bytes32",
                    "name": "r",
                    "type": "bytes32"
                },
                {
                    "internalType": "bytes32",
                    "name": "s",
                    "type": "bytes32"
                }
            ],
            "name": "betWithPermit",
            "outputs": [],
            "stateMutability": "nonpayable",
            "type": "function"
        },
        {
            "inputs": [],
            "name": "claimFee",
            "outputs": [],
            "stateMutability": "nonpayable",
            "type": "function"
        },
        {
            "inputs": [],
            "name": "claimWinnings",
            "outputs": [],
            "stateMutability": "nonpayable",
            "type": "function"
        },
        {
            "inputs": [],
            "name": "claimable",
            "outputs": [
                {
                    "internalType": "bool",
                    "name": "",
                    "type": "bool"
                }
            ],
            "stateMutability": "view",
            "type": "function"
        },
        {
            "inputs": [
                {
                    "internalType": "address",
                    "name": "_token",
                    "type": "address"
                },
                {
                    "internalType": "uint256",
                    "name": "_amount",
                    "type": "uint256"
                }
            ],
            "name": "emergencyWithdraw",
            "outputs": [],
            "stateMutability": "nonpayable",
            "type": "function"
        },
        {
            "inputs": [],
            "name": "eventName",
            "outputs": [
                {
                    "internalType": "string",
                    "name": "",
                    "type": "string"
                }
            ],
            "stateMutability": "view",
            "type": "function"
        },
        {
            "inputs": [],
            "name": "fee",
            "outputs": [
                {
                    "internalType": "uint256",
                    "name": "",
                    "type": "uint256"
                }
            ],
            "stateMutability": "view",
            "type": "function"
        },
        {
            "inputs": [],
            "name": "gameStarts",
            "outputs": [
                {
                    "internalType": "uint256",
                    "name": "",
                    "type": "uint256"
                }
            ],
            "stateMutability": "view",
            "type": "function"
        },
        {
            "inputs": [],
            "name": "getTotalPot",
            "outputs": [
                {
                    "internalType": "uint256",
                    "name": "",
                    "type": "uint256"
                }
            ],
            "stateMutability": "view",
            "type": "function"
        },
        {
            "inputs": [],
            "name": "losersPot",
            "outputs": [
                {
                    "internalType": "uint256",
                    "name": "",
                    "type": "uint256"
                }
            ],
            "stateMutability": "view",
            "type": "function"
        },
        {
            "inputs": [
                {
                    "internalType": "uint256",
                    "name": "",
                    "type": "uint256"
                }
            ],
            "name": "potPerResult",
            "outputs": [
                {
                    "internalType": "uint256",
                    "name": "",
                    "type": "uint256"
                }
            ],
            "stateMutability": "view",
            "type": "function"
        },
        {
            "inputs": [
                {
                    "internalType": "bool",
                    "name": "_claimable",
                    "type": "bool"
                }
            ],
            "name": "setClaimable",
            "outputs": [],
            "stateMutability": "nonpayable",
            "type": "function"
        },
        {
            "inputs": [
                {
                    "internalType": "uint8",
                    "name": "_winner",
                    "type": "uint8"
                }
            ],
            "name": "setWinner",
            "outputs": [],
            "stateMutability": "nonpayable",
            "type": "function"
        },
        {
            "inputs": [],
            "name": "totalPot",
            "outputs": [
                {
                    "internalType": "uint256",
                    "name": "",
                    "type": "uint256"
                }
            ],
            "stateMutability": "view",
            "type": "function"
        },
        {
            "inputs": [
                {
                    "internalType": "address",
                    "name": "",
                    "type": "address"
                },
                {
                    "internalType": "uint8",
                    "name": "",
                    "type": "uint8"
                }
            ],
            "name": "userBet",
            "outputs": [
                {
                    "internalType": "uint256",
                    "name": "",
                    "type": "uint256"
                }
            ],
            "stateMutability": "view",
            "type": "function"
        },
        {
            "inputs": [],
            "name": "winner",
            "outputs": [
                {
                    "internalType": "uint8",
                    "name": "",
                    "type": "uint8"
                }
            ],
            "stateMutability": "view",
            "type": "function"
        }
    ],
    "bytecode": "0x60806040523480156200001157600080fd5b50604051620015ac380380620015ac833981016040819052620000349162000147565b60008054336001600160a01b031991821617909155600180549091166001600160a01b0385161790556006829055600b805460ff1916905580516200008190600a9060208401906200008b565b505050506200028d565b828054620000999062000250565b90600052602060002090601f016020900481019282620000bd576000855562000108565b82601f10620000d857805160ff191683800117855562000108565b8280016001018555821562000108579182015b8281111562000108578251825591602001919060010190620000eb565b50620001169291506200011a565b5090565b5b808211156200011657600081556001016200011b565b634e487b7160e01b600052604160045260246000fd5b6000806000606084860312156200015d57600080fd5b83516001600160a01b03811681146200017557600080fd5b60208581015160408701519295509350906001600160401b03808211156200019c57600080fd5b818701915087601f830112620001b157600080fd5b815181811115620001c657620001c662000131565b604051601f8201601f19908116603f01168101908382118183101715620001f157620001f162000131565b816040528281528a868487010111156200020a57600080fd5b600093505b828410156200022e57848401860151818501870152928501926200020f565b82841115620002405760008684830101525b8096505050505050509250925092565b600181811c908216806200026557607f821691505b602082108114156200028757634e487b7160e01b600052602260045260246000fd5b50919050565b61130f806200029d6000396000f3fe608060405234801561001057600080fd5b506004361061012c5760003560e01c8063af38d757116100ad578063dfbf53ae11610071578063dfbf53ae14610260578063e48d86e814610284578063f851a4401461028d578063fd8c3078146102a0578063fda31178146102b357600080fd5b8063af38d757146101f4578063b401faf114610211578063c437a0cd14610219578063ddca3f431461022c578063df6561d51461023557600080fd5b806378691f16116100f457806378691f16146101905780638043c9c0146101bb57806395ccea67146101d057806399d32fc4146101e3578063a3ac6e14146101eb57600080fd5b806324b570a914610131578063378c93ad1461014d57806343bf584414610162578063480bc31f14610175578063704ebc071461017d575b600080fd5b61013a60035481565b6040519081526020015b60405180910390f35b61016061015b366004610ec3565b6102c6565b005b610160610170366004610efd565b61030c565b61013a610561565b61016061018b366004610fd1565b6105e2565b6001546101a3906001600160a01b031681565b6040516001600160a01b039091168152602001610144565b6101c36107d3565b6040516101449190611029565b6101606101de366004611095565b610861565b610160610916565b61013a60065481565b600b546102019060ff1681565b6040519015158152602001610144565b6101606109cf565b6101606102273660046110bf565b610c0b565b61013a60055481565b61013a6102433660046110eb565b600260209081526000928352604080842090915290825290205481565b600b5461027290610100900460ff1681565b60405160ff9091168152602001610144565b61013a60045481565b6000546101a3906001600160a01b031681565b61013a6102ae366004611115565b610d70565b6101606102c136600461112e565b610d87565b6000546001600160a01b031633146102f95760405162461bcd60e51b81526004016102f090611149565b60405180910390fd5b600b805460ff1916911515919091179055565b600654421061032d5760405162461bcd60e51b81526004016102f090611177565b6000805b60038160ff1610156105455760015483516001600160a01b03909116906323b872dd9033903090879060ff871690811061036d5761036d6111ac565b60209081029190910101516040516001600160e01b031960e086901b1681526001600160a01b0393841660048201529290911660248301526044820152606401602060405180830381600087803b1580156103c757600080fd5b505af11580156103db573d6000803e3d6000fd5b505050506040513d601f19601f820116820180604052508101906103ff91906111c2565b50828160ff1681518110610415576104156111ac565b60209081029190910181015133600090815260028352604080822060ff8616835290935291822080549192909161044d9084906111f5565b92505081905550828160ff1681518110610469576104696111ac565b602002602001015160078260ff1660038110610487576104876111ac565b01600082825461049791906111f5565b92505081905550828160ff16815181106104b3576104b36111ac565b6020026020010151826104c691906111f5565b9150336001600160a01b03167fcfb6e9afebabebfb2c7ac42dfcd2e8ca178dc6400fe8ec3075bd690d8e3377fe848360ff1681518110610508576105086111ac565b60200260200101518360405161052b92919091825260ff16602082015260400190565b60405180910390a28061053d8161120d565b915050610331565b50806003600082825461055891906111f5565b90915550505050565b6001546040516370a0823160e01b81523060048201526000916001600160a01b0316906370a082319060240160206040518083038186803b1580156105a557600080fd5b505afa1580156105b9573d6000803e3d6000fd5b505050506040513d601f19601f820116820180604052508101906105dd919061122d565b905090565b60065442106106035760405162461bcd60e51b81526004016102f090611177565b60015460405163d505accf60e01b8152336004820152306024820152604481018890526064810187905260ff8516608482015260a4810184905260c481018390526001600160a01b039091169063d505accf9060e401600060405180830381600087803b15801561067357600080fd5b505af1158015610687573d6000803e3d6000fd5b50506001546040516323b872dd60e01b8152336004820152306024820152604481018a90526001600160a01b0390911692506323b872dd9150606401602060405180830381600087803b1580156106dd57600080fd5b505af11580156106f1573d6000803e3d6000fd5b505050506040513d601f19601f8201168201806040525081019061071591906111c2565b5033600090815260026020908152604080832060ff88168452909152812080548892906107439084906111f5565b90915550869050600760ff861660038110610760576107606111ac565b01600082825461077091906111f5565b92505081905550856003600082825461078991906111f5565b90915550506040805187815260ff8616602082015233917fcfb6e9afebabebfb2c7ac42dfcd2e8ca178dc6400fe8ec3075bd690d8e3377fe910160405180910390a2505050505050565b600a80546107e090611246565b80601f016020809104026020016040519081016040528092919081815260200182805461080c90611246565b80156108595780601f1061082e57610100808354040283529160200191610859565b820191906000526020600020905b81548152906001019060200180831161083c57829003601f168201915b505050505081565b6000546001600160a01b0316331461088b5760405162461bcd60e51b81526004016102f090611149565b60005460405163a9059cbb60e01b81526001600160a01b039182166004820152602481018390529083169063a9059cbb90604401602060405180830381600087803b1580156108d957600080fd5b505af11580156108ed573d6000803e3d6000fd5b505050506040513d601f19601f8201168201806040525081019061091191906111c2565b505050565b6000546001600160a01b031633146109405760405162461bcd60e51b81526004016102f090611149565b60015460005460055460405163a9059cbb60e01b81526001600160a01b039283166004820152602481019190915291169063a9059cbb90604401602060405180830381600087803b15801561099457600080fd5b505af11580156109a8573d6000803e3d6000fd5b505050506040513d601f19601f820116820180604052508101906109cc91906111c2565b50565b336000908152600260209081526040808320600b54610100900460ff168452909152902054610a4c5760405162461bcd60e51b8152602060048201526024808201527f424f4f4b4d414b45523a205553455220484153204e4f5448494e4720544f20436044820152634c41494d60e01b60648201526084016102f0565b600b5460ff161515600114610aad5760405162461bcd60e51b815260206004820152602160248201527f424f4f4b4d414b45523a205354415445204953204e4f5420434c41494d41424c6044820152604560f81b60648201526084016102f0565b600b54600090600790610100900460ff1660038110610ace57610ace6111ac565b0154336000908152600260209081526040808320600b54610100900460ff168452909152902054600454610b029190611281565b610b0c91906112a0565b600154336000818152600260209081526040808320600b54610100900460ff1684529091529020549293506001600160a01b039091169163a9059cbb9190610b5490856111f5565b6040516001600160e01b031960e085901b1681526001600160a01b0390921660048301526024820152604401602060405180830381600087803b158015610b9a57600080fd5b505af1158015610bae573d6000803e3d6000fd5b505050506040513d601f19601f82011682018060405250810190610bd291906111c2565b5060405181815233907ffce6d5860f911bc27ece1365300332d2ddbe20c1adc46ee2eddd8f72c48053b29060200160405180910390a250565b6006544210610c2c5760405162461bcd60e51b81526004016102f090611177565b6001546040516323b872dd60e01b8152336004820152306024820152604481018490526001600160a01b03909116906323b872dd90606401602060405180830381600087803b158015610c7e57600080fd5b505af1158015610c92573d6000803e3d6000fd5b505050506040513d601f19601f82011682018060405250810190610cb691906111c2565b5033600090815260026020908152604080832060ff8516845290915281208054849290610ce49084906111f5565b90915550829050600760ff831660038110610d0157610d016111ac565b016000828254610d1191906111f5565b925050819055508160036000828254610d2a91906111f5565b90915550506040805183815260ff8316602082015233917fcfb6e9afebabebfb2c7ac42dfcd2e8ca178dc6400fe8ec3075bd690d8e3377fe910160405180910390a25050565b60078160038110610d8057600080fd5b0154905081565b6000546001600160a01b03163314610db15760405162461bcd60e51b81526004016102f090611149565b6006544211610e025760405162461bcd60e51b815260206004820152601f60248201527f424f4f4b4d414b45523a2047414d4520484153204e4f5420535441525445440060448201526064016102f0565b600b805461ff00191661010060ff84160217905560005b60038160ff161015610e7a57600b5460ff8281166101009092041614610e685760078160ff1660038110610e4f57610e4f6111ac565b015460046000828254610e6291906111f5565b90915550505b80610e728161120d565b915050610e19565b5060646004546005610e8c9190611281565b610e9691906112a0565b600581905560048054600090610ead9084906112c2565b909155505050565b80151581146109cc57600080fd5b600060208284031215610ed557600080fd5b8135610ee081610eb5565b9392505050565b634e487b7160e01b600052604160045260246000fd5b60006020808385031215610f1057600080fd5b823567ffffffffffffffff80821115610f2857600080fd5b818501915085601f830112610f3c57600080fd5b813581811115610f4e57610f4e610ee7565b8060051b604051601f19603f83011681018181108582111715610f7357610f73610ee7565b604052918252848201925083810185019188831115610f9157600080fd5b938501935b82851015610faf57843584529385019392850192610f96565b98975050505050505050565b803560ff81168114610fcc57600080fd5b919050565b60008060008060008060c08789031215610fea57600080fd5b863595506020870135945061100160408801610fbb565b935061100f60608801610fbb565b92506080870135915060a087013590509295509295509295565b600060208083528351808285015260005b818110156110565785810183015185820160400152820161103a565b81811115611068576000604083870101525b50601f01601f1916929092016040019392505050565b80356001600160a01b0381168114610fcc57600080fd5b600080604083850312156110a857600080fd5b6110b18361107e565b946020939093013593505050565b600080604083850312156110d257600080fd5b823591506110e260208401610fbb565b90509250929050565b600080604083850312156110fe57600080fd5b6111078361107e565b91506110e260208401610fbb565b60006020828403121561112757600080fd5b5035919050565b60006020828403121561114057600080fd5b610ee082610fbb565b6020808252601490820152732127a7a5a6a0a5a2a91d102727aa1020a226a4a760611b604082015260600190565b6020808252818101527f424f4f4b4d414b45523a204245545320415245204e4f54204143434550544544604082015260600190565b634e487b7160e01b600052603260045260246000fd5b6000602082840312156111d457600080fd5b8151610ee081610eb5565b634e487b7160e01b600052601160045260246000fd5b60008219821115611208576112086111df565b500190565b600060ff821660ff811415611224576112246111df565b60010192915050565b60006020828403121561123f57600080fd5b5051919050565b600181811c9082168061125a57607f821691505b6020821081141561127b57634e487b7160e01b600052602260045260246000fd5b50919050565b600081600019048311821515161561129b5761129b6111df565b500290565b6000826112bd57634e487b7160e01b600052601260045260246000fd5b500490565b6000828210156112d4576112d46111df565b50039056fea264697066735822122025103ee7af1aed204e1e3976478f5c108cfd3109c884566ca4baf13eb794286b64736f6c63430008080033",
    "linkReferences": {},
    "deployedLinkReferences": {}
}