{
    "_format": "hh-sol-artifact-1",
    "contractName": "neToken",
    "sourceName": "contracts/neToken.sol",
    "abi": [
        {
            "inputs": [
                {
                    "internalType": "string",
                    "name": "_name",
                    "type": "string"
                },
                {
                    "internalType": "string",
                    "name": "_symbol",
                    "type": "string"
                },
                {
                    "internalType": "uint8",
                    "name": "_decimals",
                    "type": "uint8"
                }
            ],
            "stateMutability": "nonpayable",
            "type": "constructor"
        },
        {
            "anonymous": false,
            "inputs": [
                {
                    "indexed": true,
                    "internalType": "address",
                    "name": "owner",
                    "type": "address"
                },
                {
                    "indexed": true,
                    "internalType": "address",
                    "name": "spender",
                    "type": "address"
                },
                {
                    "indexed": false,
                    "internalType": "uint256",
                    "name": "amount",
                    "type": "uint256"
                }
            ],
            "name": "Approval",
            "type": "event"
        },
        {
            "anonymous": false,
            "inputs": [
                {
                    "indexed": true,
                    "internalType": "address",
                    "name": "previousOwner",
                    "type": "address"
                },
                {
                    "indexed": true,
                    "internalType": "address",
                    "name": "newOwner",
                    "type": "address"
                }
            ],
            "name": "OwnershipTransferred",
            "type": "event"
        },
        {
            "anonymous": false,
            "inputs": [
                {
                    "indexed": true,
                    "internalType": "address",
                    "name": "from",
                    "type": "address"
                },
                {
                    "indexed": true,
                    "internalType": "address",
                    "name": "to",
                    "type": "address"
                },
                {
                    "indexed": false,
                    "internalType": "uint256",
                    "name": "amount",
                    "type": "uint256"
                }
            ],
            "name": "Transfer",
            "type": "event"
        },
        {
            "inputs": [],
            "name": "DOMAIN_SEPARATOR",
            "outputs": [
                {
                    "internalType": "bytes32",
                    "name": "",
                    "type": "bytes32"
                }
            ],
            "stateMutability": "view",
            "type": "function"
        },
        {
            "inputs": [
                {
                    "internalType": "address",
                    "name": "_auth",
                    "type": "address"
                }
            ],
            "name": "addAuth",
            "outputs": [],
            "stateMutability": "nonpayable",
            "type": "function"
        },
        {
            "inputs": [
                {
                    "internalType": "address",
                    "name": "",
                    "type": "address"
                },
                {
                    "internalType": "address",
                    "name": "",
                    "type": "address"
                }
            ],
            "name": "allowance",
            "outputs": [
                {
                    "internalType": "uint256",
                    "name": "",
                    "type": "uint256"
                }
            ],
            "stateMutability": "view",
            "type": "function"
        },
        {
            "inputs": [
                {
                    "internalType": "address",
                    "name": "spender",
                    "type": "address"
                },
                {
                    "internalType": "uint256",
                    "name": "amount",
                    "type": "uint256"
                }
            ],
            "name": "approve",
            "outputs": [
                {
                    "internalType": "bool",
                    "name": "",
                    "type": "bool"
                }
            ],
            "stateMutability": "nonpayable",
            "type": "function"
        },
        {
            "inputs": [
                {
                    "internalType": "address",
                    "name": "",
                    "type": "address"
                }
            ],
            "name": "balanceOf",
            "outputs": [
                {
                    "internalType": "uint256",
                    "name": "",
                    "type": "uint256"
                }
            ],
            "stateMutability": "view",
            "type": "function"
        },
        {
            "inputs": [
                {
                    "internalType": "address",
                    "name": "_vault",
                    "type": "address"
                },
                {
                    "internalType": "uint256",
                    "name": "_amount",
                    "type": "uint256"
                }
            ],
            "name": "burn",
            "outputs": [],
            "stateMutability": "nonpayable",
            "type": "function"
        },
        {
            "inputs": [],
            "name": "decimals",
            "outputs": [
                {
                    "internalType": "uint8",
                    "name": "",
                    "type": "uint8"
                }
            ],
            "stateMutability": "view",
            "type": "function"
        },
        {
            "inputs": [
                {
                    "internalType": "address",
                    "name": "",
                    "type": "address"
                }
            ],
            "name": "isAuth",
            "outputs": [
                {
                    "internalType": "bool",
                    "name": "",
                    "type": "bool"
                }
            ],
            "stateMutability": "view",
            "type": "function"
        },
        {
            "inputs": [
                {
                    "internalType": "address",
                    "name": "_to",
                    "type": "address"
                },
                {
                    "internalType": "uint256",
                    "name": "_amount",
                    "type": "uint256"
                }
            ],
            "name": "mint",
            "outputs": [],
            "stateMutability": "nonpayable",
            "type": "function"
        },
        {
            "inputs": [],
            "name": "name",
            "outputs": [
                {
                    "internalType": "string",
                    "name": "",
                    "type": "string"
                }
            ],
            "stateMutability": "view",
            "type": "function"
        },
        {
            "inputs": [
                {
                    "internalType": "address",
                    "name": "",
                    "type": "address"
                }
            ],
            "name": "nonces",
            "outputs": [
                {
                    "internalType": "uint256",
                    "name": "",
                    "type": "uint256"
                }
            ],
            "stateMutability": "view",
            "type": "function"
        },
        {
            "inputs": [],
            "name": "owner",
            "outputs": [
                {
                    "internalType": "address",
                    "name": "",
                    "type": "address"
                }
            ],
            "stateMutability": "view",
            "type": "function"
        },
        {
            "inputs": [
                {
                    "internalType": "address",
                    "name": "owner",
                    "type": "address"
                },
                {
                    "internalType": "address",
                    "name": "spender",
                    "type": "address"
                },
                {
                    "internalType": "uint256",
                    "name": "value",
                    "type": "uint256"
                },
                {
                    "internalType": "uint256",
                    "name": "deadline",
                    "type": "uint256"
                },
                {
                    "internalType": "uint8",
                    "name": "v",
                    "type": "uint8"
                },
                {
                    "internalType": "bytes32",
                    "name": "r",
                    "type": "bytes32"
                },
                {
                    "internalType": "bytes32",
                    "name": "s",
                    "type": "bytes32"
                }
            ],
            "name": "permit",
            "outputs": [],
            "stateMutability": "nonpayable",
            "type": "function"
        },
        {
            "inputs": [
                {
                    "internalType": "address",
                    "name": "_auth",
                    "type": "address"
                }
            ],
            "name": "ratifyAuth",
            "outputs": [],
            "stateMutability": "nonpayable",
            "type": "function"
        },
        {
            "inputs": [],
            "name": "renounceOwnership",
            "outputs": [],
            "stateMutability": "nonpayable",
            "type": "function"
        },
        {
            "inputs": [
                {
                    "internalType": "address",
                    "name": "_auth",
                    "type": "address"
                }
            ],
            "name": "revokeAuth",
            "outputs": [],
            "stateMutability": "nonpayable",
            "type": "function"
        },
        {
            "inputs": [],
            "name": "symbol",
            "outputs": [
                {
                    "internalType": "string",
                    "name": "",
                    "type": "string"
                }
            ],
            "stateMutability": "view",
            "type": "function"
        },
        {
            "inputs": [],
            "name": "totalSupply",
            "outputs": [
                {
                    "internalType": "uint256",
                    "name": "",
                    "type": "uint256"
                }
            ],
            "stateMutability": "view",
            "type": "function"
        },
        {
            "inputs": [
                {
                    "internalType": "address",
                    "name": "to",
                    "type": "address"
                },
                {
                    "internalType": "uint256",
                    "name": "amount",
                    "type": "uint256"
                }
            ],
            "name": "transfer",
            "outputs": [
                {
                    "internalType": "bool",
                    "name": "",
                    "type": "bool"
                }
            ],
            "stateMutability": "nonpayable",
            "type": "function"
        },
        {
            "inputs": [
                {
                    "internalType": "address",
                    "name": "from",
                    "type": "address"
                },
                {
                    "internalType": "address",
                    "name": "to",
                    "type": "address"
                },
                {
                    "internalType": "uint256",
                    "name": "amount",
                    "type": "uint256"
                }
            ],
            "name": "transferFrom",
            "outputs": [
                {
                    "internalType": "bool",
                    "name": "",
                    "type": "bool"
                }
            ],
            "stateMutability": "nonpayable",
            "type": "function"
        },
        {
            "inputs": [
                {
                    "internalType": "address",
                    "name": "newOwner",
                    "type": "address"
                }
            ],
            "name": "transferOwnership",
            "outputs": [],
            "stateMutability": "nonpayable",
            "type": "function"
        }
    ],
    "bytecode": "0x60e06040523480156200001157600080fd5b50604051620013d5380380620013d5833981016040819052620000349162000301565b82828282600090805190602001906200004f929190620001a8565b50815162000065906001906020850190620001a8565b507fff0000000000000000000000000000000000000000000000000000000000000060f882901b166080524660a0526200009e620000ba565b60c05250620000b1915033905062000156565b50505062000478565b60007f8b73c3c69bb8fe3d512ecc4cf759cc79239f7b179b0ffacaa9a75d522b39400f6000604051620000ee919062000382565b6040805191829003822060208301939093528101919091527fc89efdaa54c0f20c7adf612882df0950f5a951637e0307cdcb4c672f298b8bc660608201524660808201523060a082015260c00160405160208183030381529060405280519060200120905090565b600680546001600160a01b038381166001600160a01b0319831681179093556040519116919082907f8be0079c531659141344cd1fd0a4f28419497f9722a3daafe3b4186f6b6457e090600090a35050565b828054620001b69062000425565b90600052602060002090601f016020900481019282620001da576000855562000225565b82601f10620001f557805160ff191683800117855562000225565b8280016001018555821562000225579182015b828111156200022557825182559160200191906001019062000208565b506200023392915062000237565b5090565b5b8082111562000233576000815560010162000238565b600082601f8301126200025f578081fd5b81516001600160401b03808211156200027c576200027c62000462565b604051601f8301601f19908116603f01168101908282118183101715620002a757620002a762000462565b81604052838152602092508683858801011115620002c3578485fd5b8491505b83821015620002e65785820183015181830184015290820190620002c7565b83821115620002f757848385830101525b9695505050505050565b60008060006060848603121562000316578283fd5b83516001600160401b03808211156200032d578485fd5b6200033b878388016200024e565b9450602086015191508082111562000351578384fd5b5062000360868287016200024e565b925050604084015160ff8116811462000377578182fd5b809150509250925092565b600080835482600182811c9150808316806200039f57607f831692505b6020808410821415620003c057634e487b7160e01b87526022600452602487fd5b818015620003d75760018114620003e95762000417565b60ff1986168952848901965062000417565b60008a815260209020885b868110156200040f5781548b820152908501908301620003f4565b505084890196505b509498975050505050505050565b600181811c908216806200043a57607f821691505b602082108114156200045c57634e487b7160e01b600052602260045260246000fd5b50919050565b634e487b7160e01b600052604160045260246000fd5b60805160f81c60a05160c051610f2a620004ab60003960006105920152600061055d015260006101e40152610f2a6000f3fe608060405234801561001057600080fd5b50600436106101375760003560e01c806370a08231116100b85780639dc29fac1161007c5780639dc29fac1461029e578063a9059cbb146102b1578063d505accf146102c4578063dd62ed3e146102d7578063f2fde38b14610302578063f8171dfa1461031557600080fd5b806370a0823114610233578063715018a6146102535780637ecebe001461025b5780638da5cb5b1461027b57806395d89b411461029657600080fd5b80632f7becbd116100ff5780632f7becbd146101ca578063313ce567146101df5780633644e5151461021857806340c10f19146102205780635422224e146101ca57600080fd5b806306fdde031461013c578063095ea7b31461015a57806318160ddd1461017d57806323b872dd146101945780632520e7ff146101a7575b600080fd5b610144610328565b6040516101519190610dcc565b60405180910390f35b61016d610168366004610d08565b6103b6565b6040519015158152602001610151565b61018660025481565b604051908152602001610151565b61016d6101a2366004610c5c565b610422565b61016d6101b5366004610c09565b60076020526000908152604090205460ff1681565b6101dd6101d8366004610c09565b610502565b005b6102067f000000000000000000000000000000000000000000000000000000000000000081565b60405160ff9091168152602001610151565b610186610559565b6101dd61022e366004610d08565b6105b4565b610186610241366004610c09565b60036020526000908152604090205481565b6101dd610615565b610186610269366004610c09565b60056020526000908152604090205481565b6006546040516001600160a01b039091168152602001610151565b61014461064b565b6101dd6102ac366004610d08565b610658565b61016d6102bf366004610d08565b6106b5565b6101dd6102d2366004610c97565b61071b565b6101866102e5366004610c2a565b600460209081526000928352604080842090915290825290205481565b6101dd610310366004610c09565b61095f565b6101dd610323366004610c09565b6109fa565b6000805461033590610e83565b80601f016020809104026020016040519081016040528092919081815260200182805461036190610e83565b80156103ae5780601f10610383576101008083540402835291602001916103ae565b820191906000526020600020905b81548152906001019060200180831161039157829003601f168201915b505050505081565b3360008181526004602090815260408083206001600160a01b038716808552925280832085905551919290917f8c5be1e5ebec7d5bd14f71427d1e84f3dd0314c0f7b2291e5b200ac8c7c3b925906104119086815260200190565b60405180910390a350600192915050565b6001600160a01b0383166000908152600460209081526040808320338452909152812054600019811461047e576104598382610e6c565b6001600160a01b03861660009081526004602090815260408083203384529091529020555b6001600160a01b038516600090815260036020526040812080548592906104a6908490610e6c565b90915550506001600160a01b0380851660008181526003602052604090819020805487019055519091871690600080516020610ed5833981519152906104ef9087815260200190565b60405180910390a3506001949350505050565b6006546001600160a01b031633146105355760405162461bcd60e51b815260040161052c90610e1f565b60405180910390fd5b6001600160a01b03166000908152600760205260409020805460ff19166001179055565b60007f0000000000000000000000000000000000000000000000000000000000000000461461058f5761058a610a45565b905090565b507f000000000000000000000000000000000000000000000000000000000000000090565b3360009081526007602052604090205460ff166106075760405162461bcd60e51b81526020600482015260116024820152702732a4a2291d102727aa1026a4a72a22a960791b604482015260640161052c565b6106118282610adf565b5050565b6006546001600160a01b0316331461063f5760405162461bcd60e51b815260040161052c90610e1f565b6106496000610b39565b565b6001805461033590610e83565b3360009081526007602052604090205460ff166106ab5760405162461bcd60e51b81526020600482015260116024820152702732a4a2291d102727aa1026a4a72a22a960791b604482015260640161052c565b6106118282610b8b565b336000908152600360205260408120805483919083906106d6908490610e6c565b90915550506001600160a01b03831660008181526003602052604090819020805485019055513390600080516020610ed5833981519152906104119086815260200190565b4284101561076b5760405162461bcd60e51b815260206004820152601760248201527f5045524d49545f444541444c494e455f45585049524544000000000000000000604482015260640161052c565b60006001610777610559565b6001600160a01b038a811660008181526005602090815260409182902080546001810190915582517f6e71edae12b1b97f4d1f60370fef10105fa2faae0126114a169c64845d6126c98184015280840194909452938d166060840152608083018c905260a083019390935260c08083018b90528151808403909101815260e08301909152805192019190912061190160f01b6101008301526101028201929092526101228101919091526101420160408051601f198184030181528282528051602091820120600084529083018083525260ff871690820152606081018590526080810184905260a0016020604051602081039080840390855afa158015610883573d6000803e3d6000fd5b5050604051601f1901519150506001600160a01b038116158015906108b95750876001600160a01b0316816001600160a01b0316145b6108f65760405162461bcd60e51b815260206004820152600e60248201526d24a72b20a624a22fa9a4a3a722a960911b604482015260640161052c565b6001600160a01b0390811660009081526004602090815260408083208a8516808552908352928190208990555188815291928a16917f8c5be1e5ebec7d5bd14f71427d1e84f3dd0314c0f7b2291e5b200ac8c7c3b925910160405180910390a350505050505050565b6006546001600160a01b031633146109895760405162461bcd60e51b815260040161052c90610e1f565b6001600160a01b0381166109ee5760405162461bcd60e51b815260206004820152602660248201527f4f776e61626c653a206e6577206f776e657220697320746865207a65726f206160448201526564647265737360d01b606482015260840161052c565b6109f781610b39565b50565b6006546001600160a01b03163314610a245760405162461bcd60e51b815260040161052c90610e1f565b6001600160a01b03166000908152600760205260409020805460ff19169055565b60007f8b73c3c69bb8fe3d512ecc4cf759cc79239f7b179b0ffacaa9a75d522b39400f6000604051610a779190610d31565b6040805191829003822060208301939093528101919091527fc89efdaa54c0f20c7adf612882df0950f5a951637e0307cdcb4c672f298b8bc660608201524660808201523060a082015260c00160405160208183030381529060405280519060200120905090565b8060026000828254610af19190610e54565b90915550506001600160a01b038216600081815260036020908152604080832080548601905551848152600080516020610ed583398151915291015b60405180910390a35050565b600680546001600160a01b038381166001600160a01b0319831681179093556040519116919082907f8be0079c531659141344cd1fd0a4f28419497f9722a3daafe3b4186f6b6457e090600090a35050565b6001600160a01b03821660009081526003602052604081208054839290610bb3908490610e6c565b90915550506002805482900390556040518181526000906001600160a01b03841690600080516020610ed583398151915290602001610b2d565b80356001600160a01b0381168114610c0457600080fd5b919050565b600060208284031215610c1a578081fd5b610c2382610bed565b9392505050565b60008060408385031215610c3c578081fd5b610c4583610bed565b9150610c5360208401610bed565b90509250929050565b600080600060608486031215610c70578081fd5b610c7984610bed565b9250610c8760208501610bed565b9150604084013590509250925092565b600080600080600080600060e0888a031215610cb1578283fd5b610cba88610bed565b9650610cc860208901610bed565b95506040880135945060608801359350608088013560ff81168114610ceb578384fd5b9699959850939692959460a0840135945060c09093013592915050565b60008060408385031215610d1a578182fd5b610d2383610bed565b946020939093013593505050565b600080835482600182811c915080831680610d4d57607f831692505b6020808410821415610d6d57634e487b7160e01b87526022600452602487fd5b818015610d815760018114610d9257610dbe565b60ff19861689528489019650610dbe565b60008a815260209020885b86811015610db65781548b820152908501908301610d9d565b505084890196505b509498975050505050505050565b6000602080835283518082850152825b81811015610df857858101830151858201604001528201610ddc565b81811115610e095783604083870101525b50601f01601f1916929092016040019392505050565b6020808252818101527f4f776e61626c653a2063616c6c6572206973206e6f7420746865206f776e6572604082015260600190565b60008219821115610e6757610e67610ebe565b500190565b600082821015610e7e57610e7e610ebe565b500390565b600181811c90821680610e9757607f821691505b60208210811415610eb857634e487b7160e01b600052602260045260246000fd5b50919050565b634e487b7160e01b600052601160045260246000fdfeddf252ad1be2c89b69c2b068fc378daa952ba7f163c4a11628f55a4df523b3efa2646970667358221220cbd3e9c27fd57251029d4fdf220855c78d75d7c997d9d0b7790ae7b6030deb0164736f6c63430008040033",
    "linkReferences": {},
    "deployedLinkReferences": {}
}